:100000000C94E2030C940A040C940A040C940A0461
:100010000C940A040C940A040C940A040C940A0428
:100020000C940A040C940A040C94530D0C94C20D05
:100030000C940A040C940A040C940A040C940A0408
:100040000C940A040C940A040C940A040C940A04F8
:100050000C940A040C940A040C940A040C94F40FF3
:100060000C940A040C940A040C940A040C940A04D8
:100070000C940A040C940A040C940A040C940A04C8
:100080000C943E100C940A040C940A040C940A0478
:100090000C940A040C940A040C940A040C940A04A8
:1000A0000C940A040C940A040C940A044348472054
:1000B0004400434847204F4B00434847203C0043FF
:1000C0004847204F4B004869200053636F726520FA
:1000D000004652454520505241435449434500444F
:1000E0004F4A4F204348414C4C454E4745005065D0
:1000F00072666F726D3A0020003E004200410000BF
:10010000000000003E5B4F5B3E3E6B4F6B3E1C3E73
:100110007C3E1C183C7E3C181C577D571C1C5E7F87
:100120005E1C00183C1800FFE7C3E7FF0018241806
:1001300000FFE7DBE7FF30483A060E26297929263B
:10014000407F050507407F05253F5A3CE73C5A7F25
:100150003E1C1C08081C1C3E7F14227F22145F5F7B
:10016000005F5F06097F017F006689956A606060B5
:10017000606094A2FFA29408047E040810207E20F0
:100180001008082A1C08081C2A08081E1010101045
:100190000C1E0C1E0C30383E3830060E3E0E06008B
:1001A0000000000000005F00000007000700147F4F
:1001B000147F14242A7F2A122313086462364956B6
:1001C00020500008070300001C2241000041221CAF
:1001D000002A1C7F1C2A08083E0808008070300096
:1001E0000808080808000060600020100804023EAB
:1001F0005149453E00427F400072494949462141EC
:10020000494D331814127F1027454545393C4A495A
:100210004931412111090736494949364649492999
:100220001E000014000000403400000008142241A9
:100230001414141414004122140802015909063E32
:10024000415D594E7C1211127C7F494949363E412D
:100250004141227F4141413E7F494949417F09094E
:1002600009013E414151737F0808087F00417F41E9
:10027000002040413F017F081422417F4040404020
:100280007F021C027F7F0408107F3E4141413E7F78
:10029000090909063E4151215E7F0919294626496F
:1002A00049493203017F01033F4040403F1F204046
:1002B000201F3F4038403F63140814630304780450
:1002C000036159494D43007F414141020408102018
:1002D000004141417F04020102044040404040008F
:1002E0000307080020545478407F28444438384499
:1002F000444428384444287F385454541800087E15
:10030000090218A4A49C787F0804047800447D4066
:10031000002040403D007F1028440000417F400005
:100320007C047804787C080404783844444438FC1D
:100330001824241818242418FC7C080404084854A1
:1003400054542404043F44243C4040207C1C20405E
:10035000201C3C4030403C44281028444C90909055
:100360007C4464544C44000836410000007700008F
:10037000004136080002010204023C2623263C1EEE
:10038000A1A161123A4040207A3854545559215560
:100390005579412154547841215554784020545581
:1003A00079400C1E527212395555555939545454CE
:1003B0005939555454580000457C410002457D424E
:1003C0000001457C40F0292429F0F0282528F07C04
:1003D000545545002054547C547C0A097F493249C5
:1003E0004949323248484832324A4848303A414115
:1003F000217A3A42402078009DA0A07D39444444AF
:10040000393D4040403D3C24FF2424487E4943661A
:100410002B2FFC2F2BFF0929F620C0887E090320F3
:10042000545479410000447D413048484A323840B4
:1004300040227A007A0A0A727D0D19317D26292917
:100440002F28262929292630484D40203808080819
:100450000808080808382F10C8ACBA2F102834FA3A
:1004600000007B000008142A142222142A14089584
:1004700000220095AA005500AAAA55AA55AA000074
:1004800000FF00101010FF00141414FF001010FFE4
:1004900000FF1010F010F0141414FC001414F700F6
:1004A000FF0000FF00FF1414F404FC141417101FC5
:1004B00010101F101F1414141F00101010F0000053
:1004C00000001F101010101F10101010F01000006E
:1004D00000FF101010101010101010FF100000007E
:1004E000FF140000FF00FF00001F10170000FC04B5
:1004F000F414141710171414F404F40000FF00F798
:1005000014141414141414F700F7141414171410FA
:10051000101F101F141414F4141010F010F0000029
:100520001F101F0000001F14000000FC140000F04A
:1005300010F01010FF10FF141414FF141010101FEF
:1005400000000000F010FFFFFFFFFFF0F0F0F0F000
:10055000FFFFFF0000000000FFFF0F0F0F0F0F381D
:10056000444438447C2A2A3E147E02020606027E57
:10057000027E0263554941633844443C04407E2076
:100580001E2006027E020299A5E7A5991C2A492A87
:100590001C4C7201724C304A4D4D30304878483016
:1005A000BC625A463D3E494949007E0101017E2A0E
:1005B0002A2A2A2A44445F444440514A4440404441
:1005C0004A51400000FF0103E080FF000008086B73
:1005D0006B083612362436060F090F06000018186D
:1005E0000000001010003040FF0101001F01011E3B
:1005F00000191D1712003C3C3C3C0000000000F0BC
:10060000F89C8E8783878E9CF8F00000FEFF030322
:10061000030303070EFCF80000FEFF0303030303BC
:10062000070EFCF80000FFFF00000000000000FFC4
:10063000FF0000FEFF8383838383C7EE7C380000C6
:10064000F8FC0E07030303070EFCF800003F7FE0F1
:10065000C08080C0E07F3FFFFF0101010101010177
:10066000FFFF0000FFFF0C0C0C0C1C3E77E3C100E9
:10067000007FFFC0C0C0C0C0E0703F1F00001F3F30
:1006800070E0C0C0C0E0703F1F00007FFFC1C1C16B
:10069000C1C1E3773E1C00001F3F70E0C0C0C0E056
:1006A000703F1F000000000001FFFF01000000D5A7
:1006B000F08D14A1C881CFD9F1AF20004B656570D2
:1006C00020747261696E696E6700426F7373207582
:1006D0006E6C6F636B656400412F42204261636BF7
:1006E000002F00466F756E642000534543524554F9
:1006F000530020545241494E494E470020003E00CD
:1007000043484F4F534520464947485445520048B7
:1007100069676820005345435245545300444F4A8B
:100720004F204348414C4C454E47450046524545B5
:1007300020505241435449434500444F4A4F0053CF
:10074000545245455420464947485400080B00027E
:10075000020200000904000001020200000524005A
:1007600010010524010101042402060524060001EC
:100770000705810310004009040100020A0000007F
:100780000705020240000007058302400000040341
:10079000090412010002EF020140412336800001EA
:1007A0000102030141726475696E6F204C4C430075
:1007B00041726475696E6F204C656F6E6172646F13
:1007C0000000D21011241FBECFEFDAE0DEBFCDBF94
:1007D00011E0A0E0B1E0EEE7FEE202C005900D926C
:1007E000A63CB107D9F726E0A6ECB1E001C01D9206
:1007F000A439B207E1F713E0C2EED3E004C02197B9
:10080000FE010E942817C13ED107C9F70E94FF10C0
:100810000C943D170C9400008091E5010895EAE2E4
:10082000F2E0A0E0B8E000800EBC8111012C11972D
:10083000A0FDFDCF0192B9F70DB40895AC01803849
:10084000910564F59C01265F3F4F2138310514F076
:1008500020E830E0241BCB018770992791E001C08C
:10086000990F8A95EAF777FF02C0695F7F4FFB0116
:1008700083E0F595E7958A95E1F7F695FE2FEE274B
:10088000F795E795E40FF51FE65DFD4F215030F039
:100890008191DF011197892B8C93F8CF0895FC018A
:1008A00080912902882311F13FB7F89482E0809368
:1008B000E9002091F200822F90E01816190614F436
:1008C00081E090E0882339F0289844E6409328029C
:1008D0004091F1004083222339F02091F200211150
:1008E00003C02BE62093E8003FBF08958FEF9FEFF2
:1008F00008952FB7F89483E08093E9009091E80081
:10090000892F807295FF04C09091F20080E4891BCA
:100910002FBF08958091200281110DC082E0809345
:100920001C0284E080931D0210921F0210921E028E
:1009300081E0809320028CE192E00895CF93DF93D1
:100940001F92CDB7DEB76983DC01ED91FC91028087
:10095000F381E02D41E050E0BE016F5F7F4F0995CC
:100960000F90DF91CF91089583E08093E90080910B
:10097000F200882319F08AE38093E80008950E942A
:10098000790490E00895CF93DF931F92CDB7DEB73F
:10099000FC018485958597FD08C02FEF3FEF3587D3
:1009A00024870F90DF91CF910895CE0101960E9488
:1009B0004F04019719F4898190E0F3CF8FEF9FEFF7
:1009C000F0CF0F931F93CF93DF931F92CDB7DEB776
:1009D0008C01FC018485958597FF0BC0CE010196A3
:1009E0000E944F04019771F4898190E0F801958786
:1009F0008487F801848595850F90DF91CF911F91B1
:100A00000F9108958FEF9FEFF1CFFC0184859585BD
:100A100097FD0BC09FB7F89482E08093E900809126
:100A2000F2009FBF90E0019608959FB7F89482E08E
:100A30008093E9008091F2009FBF90E0089540917B
:100A4000160250911702209114023091150242179C
:100A50005307B4F49091E8009570E1F39091E800A9
:100A600092FD19C08093F1008091160290911702B7
:100A700001968F739927892B19F48EEF8093E800E4
:100A8000809116029091170201969093170280931D
:100A9000160281E0089580E00895DF92EF92FF92C0
:100AA0000F931F93CF93DF93D82E8A01EB017B0125
:100AB000E40EF51ECE15DF0559F0D7FE12C0FE017B
:100AC00084910E941F0521968111F4CF0FEF1FEF33
:100AD000C801DF91CF911F910F91FF90EF90DF90B0
:100AE00008958881EECF0F931F93CF93DF931F92CA
:100AF000CDB7DEB782E0898342E450E06CE477E072
:100B000080E80E944D050E948A04DC0112960D9136
:100B10001C910115110589F0D801ED91FC9102801D
:100B2000F381E02DBE016F5F7F4FC801099597FDEE
:100B300004C0F80100851185ECCF89810F90DF9109
:100B4000CF911F910F910895615030F02091F100E5
:100B5000FC0120830196F8CF289884E68093280230
:100B600008953FB7F8948091100290911102A091DE
:100B70001202B091130226B5A89B05C02F3F19F0B1
:100B80000196A11DB11D3FBFBA2FA92F982F88270D
:100B9000BC01CD01620F711D811D911D42E0660FE8
:100BA000771F881F991F4A95D1F708958F929F92BA
:100BB000AF92BF92CF92DF92EF92FF926B017C01D6
:100BC0000E94B1054B015C01C114D104E104F104A0
:100BD000B9F00E94B105681979098A099B09683E34
:100BE00073408105910580F321E0C21AD108E10824
:100BF000F10888EE880E83E0981EA11CB11CE4CF9A
:100C0000FF90EF90DF90CF90BF90AF909F908F902C
:100C100008958F929F92AF92BF92CF92DF92EF9200
:100C2000FF920F931F93CF93DF936C017B018A0197
:100C300080910C01882309F45CC0809129028823EB
:100C400009F457C080911B0280FF05C08091E0002D
:100C500082608093E000E801B12C8AEFA82E93E037
:100C6000892E2AE3922E209711F4BB20D9F10E94FD
:100C7000790481110AC0AA94AA20D9F161E070E038
:100C800080E090E00E94D605EECF8C171D0611F093
:100C90000CF08C2F9FB7F8948092E9002091E80027
:100CA00025FD02C09FBFDFCF282F30E0C21BD30B32
:100CB000F701815020F041914093F100FACFE20E0C
:100CC000F31EBB2021F09092E800B12CEBCF809175
:100CD000E80085FDE7CF9092E800BB24B39420970D
:100CE00009F3F3CF5D9884E680931A02101611067B
:100CF0003CF081E090E0F6019383828310E000E015
:100D0000C801DF91CF911F910F91FF90EF90DF907D
:100D1000CF90BF90AF909F908F900895AF92BF9269
:100D2000CF92DF92EF92FF920F931F93CF93DF93B7
:100D30006C017B018B01040F151FEB015E01AE18E6
:100D4000BF08C017D10759F06991D601ED91FC9108
:100D50000190F081E02DC6010995892B79F7C50135
:100D6000DF91CF911F910F91FF90EF90DF90CF9087
:100D7000BF90AF9008952091DE01E091DC01F091E9
:100D8000DD01CF0102969093DD018093DC012223E7
:100D900019F0859194910895808191810895CF9261
:100DA000DF92EF92FF92CF93DF930E94BB068115F3
:100DB00020E8920791F4809171008D7F80937100FB
:100DC00010929100469847981092DB01DF91CF91E5
:100DD000FF90EF90DF90CF90089521E02093DB010A
:100DE000813020E8920751F48091D9019091DA0185
:100DF0009093DD018093DC010E94BB0697FD05C046
:100E00002091D801222309F454C02091D701211147
:100E100050C021E02093DF01EC01DF77209709F03B
:100E20004BC081E08093E00146983FE9C32E3FE04C
:100E3000D32EE12CF12CCAEFD0E0E0918E06F09198
:100E40008F060995811103C081E08093E0018091B4
:100E5000DF01882329F08091E001882309F43FC055
:100E600047980E94BB060097F1F19C01DE010E94A9
:100E70001917DC01CB0129E0B595A79597958795C2
:100E80002A95D1F7109290002AE020939100D092F9
:100E90009900C09298008093E1019093E201A093A1
:100EA000E301B093E401809171008260809371004E
:100EB0008DCF1092DF01B0CF9E0150E040E060E4A2
:100EC00072E48FE090E00E94C51669017A0181E02A
:100ED000C81AD108E108F1081092E001AECF469996
:100EE000BFCF479ABECF8FEF9FEFDC01CBCF2D9ABC
:100EF0000895BC0190E080E00C94D6058FB18095F8
:100F0000807F669B88601C9B8460089580E0EAE295
:100F1000F2E081118FEF002481938193819381937B
:100F20000394D1F71092FD011092FC011092FF0181
:100F30001092FE01089590910802982329F490914F
:100F40000902982381E009F480E00895CF93C82F27
:100F50000E947E07982F9C2381E09C1380E0CF9114
:100F6000089580E00C940F0480389105B8F4603443
:100F70007105A0F420E191E061FD94E060FD990F1E
:100F800062FD9295687F269FD0011124A80FA65D6F
:100F9000BD4F8C9140FF03C0892B8C930895909591
:100FA0008923FBCF2F923F924F925F926F927F9255
:100FB0008F929F92AF92BF92CF92DF92EF92FF9269
:100FC0000F931F93CF93DF93EC018B017A0169019B
:100FD000C61AD70AD7FE03C0D194C194D1084701DD
:100FE0008C1A9D0A97FE03C09194819491088C14E9
:100FF0009D0454F49E2D8F2D7901292F382F9C2F7D
:101000008D2FE801092F182FEC16FD0654F4902FB0
:10101000812F8901292F382F9C2F8D2FE701E92E51
:10102000F82E17012C1A3D0A2901401A510A57FEC1
:1010300003C0519441945108310137FE03C08FEF32
:10104000681A780A759467948FEF021713070CF4E7
:1010500081E0A82E880FBB08EC16FD06A4F041E045
:10106000BE01C8018C149D0414F0B801CE010E9489
:10107000B4076418750877FE04C00A0D1B1D620CC6
:10108000731C2196E9CFDF91CF911F910F91FF90B3
:10109000EF90DF90CF90BF90AF909F908F907F9018
:1010A0006F905F904F903F902F900895AF92BF92B6
:1010B000CF92DF92EF92FF920F931F93CF93DF9324
:1010C0008C01EB016034710514F40E941E045E0172
:1010D0008AE0A80EB11CBE01675F7F4F60347105C6
:1010E0001CF4C8010E941E047E01650181E4A8165B
:1010F000B1041CF080E4C82ED12CEC14FD044CF497
:1011000041E0B701C8010E94B4078FEFE81AF80A5E
:10111000ECCF075F1F4FCC15DD053CF441E0BE016D
:10112000C8010E94B4072196F6CFDF91CF911F919D
:101130000F91FF90EF90DF90CF90BF90AF90089508
:101140008F929F92AF92BF92CF92DF92EF92FF92D7
:101150000F931F93CF93DF936D3089F0C090FC0104
:10116000D090FD016A30D1F41092FF011092FE017F
:1011700088E0C80ED11CD092FD01C092FC0181E034
:1011800090E0DF91CF911F910F91FF90EF90DF9052
:10119000CF90BF90AF909F908F9008950091FE01E7
:1011A0001091FF01E5E06E9FE0011124C150DF4F77
:1011B0004801F12CF5E0E12CFF1629F0CE01019653
:1011C000FE01E490EC01B12CA12C4E2D4170B60132
:1011D0006A0D7B1DC4010E94B407E694FFEFAF1AAD
:1011E000BF0A88E0A816B10481F7F394EFEF8E1AD6
:1011F0009E0AF6E0FF12DECF0A5F1F4F1093FF0139
:101200000093FE01BCCF0F931F93CF93DF938C010C
:10121000D0E0C0E0F801EC0FFD1F6491662341F0BF
:1012200080E996E00E94A008892B11F02196F2CF68
:10123000CE01DF91CF911F910F910895CF92DF9250
:10124000EF92FF920F931F93CF93DF93883008F0B4
:10125000E7C0E82FF0E0ED5CF64FC42FD0E0062F9A
:1012600010E00C9428173B09630980099F09BE0907
:10127000DC09F109050A780184E0E80EF11C9E0101
:10128000285F3F4FA701BE01C7010E94D2076E0130
:1012900083E0C80ED11CA8014F5F5F4F9601BE01CD
:1012A000C7010E94D207A801495F5F4F9601BE01A6
:1012B000C701DF91CF911F910F91FF90EF90DF90C9
:1012C000CF900C94D2076E0188E0C80ED11C780133
:1012D00084E0E80EF11C9601A701BE01C7010E943F
:1012E000D2072596A8014F5F5F4F9E01B601C70147
:1012F0000E94D207A801495F5F4F9E01B601D8CF77
:101300007E0184E0E80EF11CA801485F5F4F970161
:10131000B701C8010E94D207680183E0C80ED11C42
:101320009E012F5F3F4FA601B701C8010E94D2075F
:101330009E01295F3F4FA601B701C801BACF7E01C8
:1013400084E0E80EF11C680188E0C80ED11C97010A
:10135000A601B701C8010E94D2070B5F1F4F9E0173
:101360002F5F3F4FA801B701C6010E94D2079E011F
:10137000295F3F4FA801B701C6019BCF6E0188E0EE
:10138000C80ED11C780188E0E80EF11CBE016F5F29
:101390007F4F9601A701C80101960E94D207A801BC
:1013A0004C5F5F4F9601B601C7010E94D2079E01B4
:1013B0002C5F3F4FA701A2CF6E0188E0C80ED11C61
:1013C00078018FEFE81AF80ABE016F5F7F4F960130
:1013D000A701C80108960E94D207A8014B5F5F4F82
:1013E000E1CF1093FF010093FE01D093FD01C09364
:1013F000FC018DEF90E0DF91CF911F910F91FF9055
:10140000EF90DF90CF900C9403091093FF010093AD
:10141000FE01D093FD01C093FC018BEF90E0EBCF78
:10142000DF91CF911F910F91FF90EF90DF90CF90C0
:101430000895CF93DF93EA0128E030E03093FF0175
:101440002093FE0170E07093FD016093FC01909188
:101450000302981749F087EF90E00E940309CE013C
:10146000DF91CF910C94030989EF90E0F6CFE091E2
:10147000D601E61770F0E61BF0E0EA53FE4F282F86
:10148000DC018A2F821B861730F491918D91981779
:10149000C1F380E0089581E008951092D601109282
:1014A000070210920402109206021092050208959B
:1014B0009091D601903158F0E6ECF1E09181919352
:1014C00091E0E53DF907D1F78093D5010895E92F23
:1014D000F0E0EA53FE4F80839F5F9093D60108951A
:1014E000CF93C82F80E80E949B07882339F0809112
:1014F0000302882319F081508093030280E10E9447
:101500009B07882369F080910302282F30E02F5F2A
:101510003F4FC217130621F01CF08F5F8093030228
:10152000CF910895089590E080E00895FF920F9381
:101530001F93CF93DF930AE216E0C0E4D0E0F801F6
:10154000F1908F01CE010E94AF16F81621F06F2D99
:10155000CE010E94B7162196C634D10581F78AE2E2
:1015600096E0DF91CF911F910F91FF9008950C9419
:10157000AF16CF92DF92EF92FF920F931F93CF930C
:10158000DF93CDB7DEB7A1970FB6F894DEBF0FBEDD
:10159000CDBF282F30E050E040E019A28E010F5D52
:1015A0001F4F8AE0C82ED12CE12CF12CCA01B901C1
:1015B000A70196010E94F716605DF80162938F0102
:1015C000211531054105510589F790E080E03097FC
:1015D00061F001900020E9F73197AF01401B510BFA
:1015E000B80180E996E00E948E06A1960FB6F894A5
:1015F000DEBF0FBECDBFDF91CF911F910F91FF9046
:10160000EF90DF90CF900895009769F0FC01019072
:101610000020E9F73197AF01481B590BBC0180E965
:1016200096E00C948E0690E080E00895EF92FF9291
:101630000F931F93CF93DF93F82EC0910102811176
:1016400002C0C091FB010E9486071092FF01109218
:10165000FE011092FD011092FC0181ED90E0FF204F
:1016600011F08FED90E00E9403091092FF0110929B
:10167000FE018CE090E09093FD018093FC018EEEE2
:1016800090E00E9403091092FF011092FE0186E192
:1016900090E09093FD018093FC0188E0C89FE001F9
:1016A00011248E010F5C1E4FF801808191810E94F0
:1016B000040BF801868110E0882361F062E270E09B
:1016C00090E080E00E94560843E261E082E00E94E0
:1016D0001E091EE0FE01EF5CFE4F8781882369F042
:1016E00062E270E0812F90E00E94560861E0610F95
:1016F00043E281E00E941E09125F00E0CF5CDE4FF2
:10170000EC8022960E1560F4E881F981E00FF11D5E
:1017100042E2612F80810E941E090F5F135FF2CFAA
:10172000C091D6010C2FCB3008F00AE0C01BD0E0EE
:10173000CA53DE4F10E08CE0E82E011749F01E9DE1
:10174000602D112440E389910E941E091F5FF5CF8F
:10175000FF2061F11092FF011092FE01C8E3D0E07A
:10176000D093FD01C093FC018AEC90E00E94030934
:10177000809102020E94B90A8CE490E09093FF01EC
:101780008093FE01D093FD01C093FC0186EC90E0B4
:101790000E94030980912F060E94B90ADF91CF9120
:1017A0001F910F91FF90EF900C94B107E091FB0116
:1017B00088E0E89FF0011124EF5CFE4F86818823CA
:1017C000C1F08CE490E09093FF018093FE0188E3E8
:1017D00090E09093FD018093FC01809106028111BD
:1017E00005C089EB90E00E940309D8CF8FEB90E011
:1017F000FACF8781882391F28CE490E09093FF01E7
:101800008093FE0188E390E09093FD018093FC01BA
:1018100080910502811103C08CEA90E0E4CF82EB55
:1018200090E0E1CFCF93C62F4CE050E0BC018AEEB0
:1018300091E00E942E17EAEEF1E081E2848715869E
:101840001092F901C093F801E1E7F0E080818D7F0B
:1018500080831092DE01E0E8F6E0F093DD01E09392
:10186000DC01F093DA01E093D90188EB91E09183F8
:1018700080838DE290E09383828384E992E0958374
:10188000848387E390E09783868380E793E0918762
:10189000808780E590E0938782870E94CF0686E06C
:1018A00080930A02CF910895FF920F931F93CF93D5
:1018B000DF93F82E88E00E94A607882389F084E051
:1018C0000E949B07882361F00E944D0A10920A0231
:1018D00010920302DF91CF911F910F91FF90089515
:1018E00080E10E949B0781113EC080E40E949B071B
:1018F0008111C3C080E10E949B078111C5C080E2B5
:101900000E949B078111C8C080E80E949B07882322
:1019100019F080E00E94580A80E10E949B0788230A
:1019200019F081E00E94580A80E20E949B078823F8
:1019300019F082E00E94580A80E40E949B078823E5
:1019400019F083E00E94580A88E00E949B078823D0
:1019500019F086E00E94580A84E00E949B078823C1
:1019600059F087E007C080E40E94A607882309F4A5
:10197000BCCF84E00E94580A8091FA01811117C0FF
:101980006AE081E291E00E94370A882381F081E0D9
:101990008093FA0180912E06816080932E060E942A
:1019A000960A60910A028EE791E00E94120C009163
:1019B0000102F11002C00091FB0110E0E80183E098
:1019C000CC0FDD1F8A95E1F7FE01EF5CFE4F8681AB
:1019D000882329F080910602882309F47BCFFE0139
:1019E000EF5CFE4F8781882329F0809105028823D0
:1019F00009F470CFFE01EF5CFE4F64818281938118
:101A00000E94370A882309F465CF81E090E002C084
:101A1000880F991F0A95E2F720912C0630912D0628
:101A2000AC0142235323452B41F4822B932B9093FB
:101A30002D0680932C060E94960A63E0FF2091F009
:101A4000809102028F3F19F08F5F80930202809194
:101A5000020290912F06981720F480932F060E947F
:101A6000960A64E0CF5CDE4F88819981DF91CF9147
:101A70001F910F91FF900C94120C80E10E94A60719
:101A8000882309F437CF75CF80E20E94A607882308
:101A900009F435CF85E06ECF80E10E94A607882348
:101AA00009F432CFF7CF1F920F920FB60F92112485
:101AB0008F939F938091E1009091E100937F9093A9
:101AC000E10083FF0FC01092E90091E09093EB00DA
:101AD0001092EC0092E39093ED001092290298E0AE
:101AE0009093F00082FF22C093E09093E9009091E0
:101AF000F200992319F09AE39093E80090911A026A
:101B0000992341F090911A02915090931A029111E9
:101B100001C05D9A90912802992341F0909128028A
:101B2000915090932802911101C0289A84FF18C007
:101B30008091E2008E7E81608093E2008091E100DE
:101B40008F7E8093E10080911B028E7E8061809366
:101B50001B029F918F910F900FBE0F901F901895B1
:101B600080FFF7CF8091E2008E7E80618093E2005B
:101B70008091E1008E7E8093E10080911B028E7E39
:101B80008160E5CF1F920F920FB60F921124CF9272
:101B9000DF92EF92FF920F931F932F933F934F93F8
:101BA0005F936F937F938F939F93AF93BF93EF93C5
:101BB000FF93CF93DF93CDB7DEB76C97DEBFCDBF7A
:101BC0001092E9008091E80083FF25C068E0CE0113
:101BD00045960E94A40582EF8093E8008D8987FFD7
:101BE00039C09091E80090FFFCCF982F907609F0D3
:101BF00034C19E894F89588D2F89F88C911131C03D
:101C0000803861F5809119028093F1001092F10003
:101C10008EEF8093E8006C960FB6F894DEBF0FBE8F
:101C2000CDBFDF91CF91FF91EF91BF91AF919F9188
:101C30008F917F916F915F914F913F912F911F9164
:101C40000F91FF90EF90DF90CF900F900FBE0F900D
:101C50001F9018959EEF9093E800C7CF1092F10067
:101C6000D5CF913059F48111D3CF4130510581F650
:101C7000809119028D7F80931902CACF933049F465
:101C80008111C6CF4130510519F680911902826049
:101C9000F2CF953041F48091E80080FFFCCF2068BE
:101CA0002093E300B5CF963009F0A9C00B8D1C8DB1
:101CB00022E01092E9001092170210921602F2121E
:101CC0002EC010921502109214020E9473051F82FA
:101CD00099E09983FA8291E09E8390EA98879AEF3F
:101CE00099872091160230911702275F3F4F3C835E
:101CF0002B838D831092E900109217021092160226
:101D0000109315020093140249E050E0BE016F5F8A
:101D10007F4F80E00E944D050E94730579CF10939C
:101D20001502009314020E948A04DC0112960D91A0
:101D30001C910115110509F451C1D801ED91FC91D7
:101D40000480F581E02DBE016B5E7F4FC8010995CF
:101D5000009709F03EC1F80100851185EACFF3E054
:101D6000FF120EC08F89882309F440C0823061F4CD
:101D700040E860E180EB97E00E949F10811148CF1E
:101D800081E28093EB0047CF813029F440E86BE09B
:101D900084EA97E0F1CF833099F70E948A04DC014E
:101DA0001296ED90FC908E010F5F1F4F6801E114B9
:101DB000F10479F0D701ED91FC910680F781E02DD7
:101DC000B801C7010995080F111DF701E084F184DE
:101DD000EECFD8011C92F60101900020E9F731976F
:101DE000BF016C197D0940E0C601C6CF6EE877E0FF
:101DF000FB01449150E080E80E944D0509CF9730E7
:101E000009F4BECF983021F481E08093F10000CF37
:101E1000993009F0FDCE837009F0B2CFEAE5F1E028
:101E200081E031E096E32191222371F08093E90073
:101E30003093EB00DF0111972C912093EC009093ED
:101E4000ED008F5F873079F78EE78093EA0010927C
:101E5000EA008F8980932902DBCE8B8D9C8D1092B6
:101E6000E9001092170210921602909315028093C7
:101E70001402898D811192C08E899D89913A49F40D
:101E8000813209F07DCF47E050E065E071E080E00D
:101E9000B3CF913209F074CF833269F48F89988D72
:101EA000B0E0A0E08093010190930201A0930301B0
:101EB000B0930401ADCE803269F48091E80082FFD6
:101EC000FCCF67E085E091E00E94A4058BEF809352
:101ED000E8009ECE823209F09BCE8F8980930C0160
:101EE000EEEFFFE7859194918B3F9C4D51F1E0E03F
:101EF000F8E08091050190910601A0910701B09151
:101F00000801803B9440A105B105F1F480910C01DA
:101F100080FD1AC0EE3F8AE0F80789F587E797E76A
:101F200091838083809160008093180288E19BE018
:101F30000FB6F894A895809360000FBE9093600050
:101F400067CEEEEFFAE0D5CF808191818737974752
:101F500009F05ECEA8958091600088618093600052
:101F60008091180280936000EE3F2AE0F20789F02A
:101F70008091FE0A9091FF0A9183808349CE8081EF
:101F800091818737980751F29093FF0A8093FE0A58
:101F9000C5CF1092FF0A1092FE0A3ACE0E948A0420
:101FA000DC0112960D911C910115110509F4E8CE82
:101FB000D801ED91FC910190F081E02DBE016B5EA6
:101FC0007F4FC8010995811123CEF8010085118545
:101FD000EBCF181619060CF41BCED2CEF1E0FF128F
:101FE000BECE62E977E004CF1F920F920FB60F9238
:101FF00011242F933F938F939F93AF93BF9380911F
:102000000C0290910D02A0910E02B0910F0230913E
:102010000B0223E0230F2D3758F50196A11DB11DAA
:1020200020930B0280930C0290930D02A0930E025A
:10203000B0930F028091100290911102A0911202B0
:10204000B09113020196A11DB11D809310029093CF
:102050001102A0931202B0931302BF91AF919F910E
:102060008F913F912F910F900FBE0F901F90189559
:1020700026E8230F0296A11DB11DD2CF1F920F9209
:102080000FB60F9211242F933F934F935F936F934B
:102090007F938F939F93AF93BF93EF93FF93809121
:1020A000E1019091E201A091E301B091E401892B5B
:1020B0008A2B8B2B09F440C08091E00181110BC069
:1020C00088B190E4892788B98091DF01882319F0CD
:1020D00088B1805888B98091E1019091E201A09186
:1020E000E301B091E401181619061A061B069CF4C8
:1020F0008091E1019091E201A091E301B091E401AE
:102100000197A109B1098093E1019093E201A093A5
:10211000E301B093E401FF91EF91BF91AF919F91E3
:102120008F917F916F915F914F913F912F910F9080
:102130000FBE0F901F9018950E94CF06ECCFEF9224
:10214000FF920F931F93CF93DF93F82E192FE62E54
:10215000042F81E0860F880F0E941F0583E00E94F4
:102160001F05CF2DD12FEC0EFD2EF11CCE15DF0556
:10217000B9F007FF13C0FE0184910E941F05182FBC
:1021800080E00E941F05812321968111EFCFDF910E
:10219000CF911F910F91FF90EF9008958881EDCF1F
:1021A00081E0F5CFE0E3F6E01382128288EE93E05F
:1021B000A0E0B0E084839583A683B78384E691E0B2
:1021C000918380838FEF9FEF95878487E0E9F6E026
:1021D0001382128286E791E0918380838CE094E001
:1021E00090938F0680938E0680E090E890938D0602
:1021F00080938C0646983E9A47983F9A0895789423
:1022000084B5826084BD84B5816084BD85B58260FB
:1022100085BD85B5816085BD80916E0081608093AC
:102220006E00109281008091810082608093810015
:102230008091810081608093810080918000816025
:1022400080938000809191008260809391008091C2
:1022500091008160809391008091900081608093D3
:1022600090008091C10084608093C1008091C10082
:1022700082608093C1008091C10081608093C10021
:102280008091C30081608093C3008091C000826010
:102290008093C0008091C20081608093C2008091D1
:1022A0007A00846080937A0080917A0082608093C3
:1022B0007A0080917A00816080937A0080917A0020
:1022C000806880937A00109229021092190210926D
:1022D0001B028091D70081608093D70080EA8093B1
:1022E000D80089B5806189BD89B5826089BD09B48E
:1022F00000FEFDCF61E070E080E090E00E94D60536
:102300008091D8008F7C80618093D8008091E0001C
:10231000807F8093E0008091E1008E7E8093E100D9
:102320008DE08093E200559A209A81EC80937C00A6
:1023300085B1806F85B984B1877E84B984B1876E99
:1023400084B95E9A5F988AB1806D8AB9769A6E98E0
:1023500081B3806F81BB899880B38D7080BB80E52D
:102360008CBD81E08DBD85E090E00E9479075F9A89
:1023700085E090E00E9479075E985C98EFEAF6E0CD
:102380008CEB96E024912EBD00000DB407FEFDCF2E
:1023900031968E179F07B1F75C9A81E880936400AD
:1023A000809165008160809365000E94B10780E89C
:1023B0000E94A6078823A9F05C9885EA8EBD0000DC
:1023C0000DB407FEFDCF5C9A2E982F982D98809122
:1023D000640080628093640081E083BF889513BEAF
:1023E000FCCF84E00E94A607882309F448C02D98FA
:1023F00084E80E94A6078823E1F00E94770788EC12
:1024000090E00E9479072F9882E090E00E94AF163A
:102410008F3F29F06FEF82E090E00E94B71684EFC3
:1024200091E00E9479072F9A84E80E94A607811103
:10243000FBCF84E10E94A6078823E1F00E94770782
:1024400088EC90E00E9479072E9882E090E00E944C
:10245000AF16882329F060E082E090E00E94B71672
:1024600084EF91E00E9479072E9A84E10E94A607EA
:102470008111FBCF88EC90E00E947907B2CF0E94D7
:10248000770782E090E00E94B70A882309F4A8C089
:102490003E9A3F9A81E08093E50181E090E00E94BE
:1024A000B70A082F0470902E81FF12C001112E98D8
:1024B000C1EFDFEF08E010E078E5872E80E40E94AE
:1024C000A607882309F491C02E9A2F9A0E947707B5
:1024D00082E390E00E9479070E947E078111F8CF85
:1024E00081E280930001809164008E7F809364007C
:1024F00080917A00806480937A0080917A0086FDD2
:10250000FCCFC0917800D09179000E94B105AB0159
:10251000BC01CE01B0E0A0E0DC01992788278C0146
:102520009D01040F151F261F371FC901B8012091F7
:102530006400216020936400611571058105910597
:1025400011F00E94A6160AE216E0C0E4D0E0CE0127
:102550000E94AF16F80181938F012196C634D105F0
:10256000B1F780912A0690912B06803A904D81F028
:1025700080EA90ED90932B0680932A0610922D0608
:1025800010922C0610922E0610922F060E94960A88
:1025900080912E0681708093FA01F5E08F2E912CA8
:1025A000A12CB12CC4E0D0E0E8E36E2E712C8FB7E3
:1025B000F89440910C0250910D0260910E027091BE
:1025C0000F028FBF8091E801882309F4CFC01092D9
:1025D000E80180E090E0892B51F30E940000E2CFF7
:1025E0001092E5013E983F9858CF992029F0C430C9
:1025F000D10511F42E9A2F9881E00E940F049E01BC
:10260000D7FF04C0222733272C1B3D0B277033270D
:10261000CE01D7FD079663E0959587956A95E1F71A
:10262000D7FF05C00197A801421B530B9A01BC01BB
:102630007695762F662777956795665D7D4FF12CA9
:10264000E12C3801621A730A8E3F5FEF950709F497
:102650003DC08E9CD0018F9CB00D112450E040E015
:10266000A150BA4F5B01E0E8AE0EB11C8F3F980756
:1026700091F0FD01E40FF51FE4916B01C40ED51E2E
:10268000F0E02F01022E01C0440C0A94EAF7F60193
:1026900054884528448A2115310599F0FD01E40F3D
:1026A000F51FE4916501C40ED51EF0E02F01062C44
:1026B00002C0559447940A94E2F7F60154884528DD
:1026C000448A4F5F5F4F4835510581F60196605847
:1026D0007F4FEA94EF2809F045C00E94B1078FE0D0
:1026E00090E00E9479072196C931D10509F0E6CE24
:1026F000992011F02F9A2D9880E991E00E94790796
:102700000E94770781E090E00E94B70A80FFE0CE48
:102710008AE090E00E94B70A9FEF980F9E3F08F072
:10272000D7CE22E330E03093FF012093FE0128E36F
:1027300030E03093FD012093FC01CBE0D0E0682F26
:1027400080E996E00E94A008CE010E94B70A219677
:10275000C131D105A1F70E94B10788EE93E00E9434
:102760007907B6CEEE24E394F12C6ECF8091E90187
:10277000042F081B802F90910001091748F48F5FE8
:10278000891708F026CF81E083BF889513BE21CF3B
:1027900081E08093E8014093E9018091E601909106
:1027A000E70101969093E7018093E6018091090289
:1027B000809308020E947E078093090280E20E94B3
:1027C000A607882391F1809107028E3118F48F5F5C
:1027D00080930702809107028E3118F081E0809388
:1027E000060280E10E94A607882331F1809104024D
:1027F0008E3118F48F5F80930402809104028E3131
:1028000018F081E080930502E0910A02E73008F0B9
:10281000E0CEF0E0E25FFB4E0C94281723148B14FB
:10282000F11466156D157215C71580910602811198
:10283000D8CF10920702D5CF809105028111E4CF45
:1028400010920402E1CF83E00E94700A88E00E94A7
:102850009B07882349F08091030281114AC010929E
:10286000000281E080930A020E9486078CE090E0DB
:102870009093FF018093FE01D093FD01C093FC0172
:102880008FE397E00E9403098AE290E09093FF01B2
:102890008093FE018EE090E09093FD018093FC0117
:1028A0008AE397E00E9403094CE257E06CE180E084
:1028B0000E94190A4DE157E066E281E00E94190A80
:1028C00045E157E060E382E00E94190A1092FF019F
:1028D0001092FE017092FD016092FC018FE097E082
:1028E0000E94030980912F060E94B90A0E94B10735
:1028F00070CE813071F4109202020E944D0A0E9443
:102900005716A50194010E94C5166093010284E048
:10291000A9CF85E0A7CF83E00E94700A88E00E94DB
:102920009B078823D1F09091030290930002E1E38A
:10293000F1E080E02581921749F0913011F42230C6
:1029400029F48F5F38968530A9F780E08093FB01EA
:102950001092030282E080930A0284E00E949B07A7
:10296000882321F01092030210920A020E94860727
:1029700082E190E09093FF018093FE01D093FD01EE
:10298000C093FC0180E097E00E9403096BE2E62E11
:1029900061E0F62E312C06E110E078E0472E512C54
:1029A000F701C190D1907F015092FF014092FE014A
:1029B0001093FD010093FC018091030238120EC0B8
:1029C0008EEF96E00E940309C6010E94040B339427
:1029D000065F1F4FF3E03F12E3CF88CF8CEF96E006
:1029E000F1CF1091000282E0123009F083E00E94E2
:1029F000700A88E00E949B07882361F0809103029F
:102A0000123009F48D5F8093FB010E944D0A83E030
:102A100080930A0284E00E949B07882329F0109388
:102A2000030281E080930A020E94860784E190E01D
:102A30009093FF018093FE01D093FD01C093FC01B0
:102A4000E12FF0E0EE0FFF1FE55DFE4F80819181E9
:102A50000E94040B82EF96E00E940309409000025E
:102A600002E0401611F043E0442E512C06E110E044
:102A700038E0C32ED12C80910002E3E0E50D8230D6
:102A800009F0E52D28E0E29FF0011124EF5CFE4FF4
:102A9000E080F180D092FF01C092FE011093FD0111
:102AA0000093FC018091030258120DC08EEF96E056
:102AB0000E940309C7010E94040B5394065F1F4F35
:102AC0004510D9CF13CF8CEF96E0F2CF80E00E9473
:102AD000540C80E00E94160B7CCD81E00E94540CC7
:102AE00081E0F8CF8CE00E949B07882321F01092B0
:102AF000030210920A020E94860742E250E05093BD
:102B0000FF014093FE01D093FD01C093FC018AEECA
:102B100096E00E9403091092FF011092FE0186E1E7
:102B200090E09093FD018093FC0183EE96E00E947B
:102B3000030980912E0681700E94B90A81EE96E009
:102B40000E94030981E00E94B90A1092FF011092CD
:102B5000FE01E6E2F0E0F093FD01E093FC018091DC
:102B6000FA01882389F08AEC96E00E94030910920A
:102B7000FF011092FE017092FD016092FC0188ED50
:102B800096E00E940309B2CE8CEB96E0EECF8091E6
:102B9000F9018D3258F58F5F8093F9010E94860705
:102BA000EAEEF1E001900020E9F7CF018B5E914061
:102BB000982F990F890F982F990F86FD2AC000E84A
:102BC00010E0091B1109C8019595879590E0909335
:102BD000FF018093FE012AE130E03093FD01209354
:102BE000FC018AEE91E00E94040B80CE0E944D0A07
:102BF0008091F801843041F40E945716A501940198
:102C00000E94C516609301028091F80180930A0228
:102C1000C5CF80E0DBCF8F929F92AF92BF92CF92D1
:102C2000DF92EF92FF92CF93DF93EC01688179817D
:102C30008A819B81611571058105910521F464E20A
:102C400079ED8BE597E02DE133EF41E050E00E9414
:102C5000C51649015A019B01AC01A7EAB1E40E94E3
:102C6000E4166B017C01ACEEB4EFA50194010E9467
:102C7000F216C60ED71EE81EF91EF7FE06C081E04A
:102C8000C81AD108E10880E8F80AC882D982EA8225
:102C9000FB82C701B6019F77DF91CF91FF90EF9044
:102CA000DF90CF90BF90AF909F908F9008958F92BC
:102CB0009F92AF92BF92CF92DF92EF92FF9260917C
:102CC0000D0170910E0180910F019091100161151D
:102CD00071058105910521F464E279ED8BE597E0BA
:102CE0002DE133EF41E050E00E94C51649015A0141
:102CF0009B01AC01A7EAB1E40E94E4166B017C01E0
:102D0000ACEEB4EFA50194010E94F216C60ED71ED8
:102D1000E81EF91EF7FE06C081E0C81AD108E108D6
:102D200080E8F80AC0920D01D0920E01E0920F01E6
:102D3000F0921001C701B6019F77FF90EF90DF90EE
:102D4000CF90BF90AF909F908F90089560930D01AA
:102D500070930E0180930F01909310010895F999DB
:102D6000FECF92BD81BDF89A992780B50895262F90
:102D7000F999FECF1FBA92BD81BD20BD0FB6F89460
:102D8000FA9AF99A0FBE01960895052E97FB1EF444
:102D900000940E94DC1657FD07D00E94F71607FC2E
:102DA00003D04EF40C94DC16509540953095219547
:102DB0003F4F4F4F5F4F0895909580957095619567
:102DC0007F4F8F4F9F4F08950E941917A59F900D19
:102DD000B49F900DA49F800D911D11240895B7FFFD
:102DE0000C94E4160E94E416821B930B0895A1E252
:102DF0001A2EAA1BBB1BFD010DC0AA1FBB1FEE1F75
:102E0000FF1FA217B307E407F50720F0A21BB30BBF
:102E1000E40BF50B661F771F881F991F1A9469F73B
:102E200060957095809590959B01AC01BD01CF0197
:102E30000895A29FB001B39FC001A39F700D811D93
:102E40001124911DB29F700D811D1124911D0895B3
:102E5000EE0FFF1F0590F491E02D0994FB01DC01BA
:102E60004150504048F001900D920020C9F701C038
:0E2E70001D9241505040E0F70895F894FFCFB6
:102E7E0010FFFFFFFF00E100000000000001000056
:102E8E0000000703060105020703010406010403FF
:102E9E000600000101020302030607880197018C58
:102EAE000192011D01040000009B011901040000A4
:102EBE0000A501150104000000AF0113010202017B
:102ECE0000BA0111010202000100C1808100000060
:102EDE00000000009E040906BF04B4040505C304E7
:102EEE00E10400000000A0088E06930A920A424FE9
:102EFE005353204F50454E00525955004755494C9B
:102F0E0045004841444F554B454E0053484F52598A
:102F1E00554B454E0054415453554D414B4900536A
:102F2E004F4E494320424F4F4D00464C415348208F
:062F3E004B49434B00006B
:00000001FF
